:100000001CC0000000000000000000000000000014
:1000100000000000000000000000000000000000E0
:1000200000000000000000000C944F000C943C0005
:10003000000000000C941C00189508E00EBF0FEFA4
:100040000DBF00E00093C1000C9426000EEF0AB92A
:10005000289A08E100938900002700938800009304
:10006000800002E200936F000DE8009381003327C7
:10007000772788277894FFCF0F930FB70F930091BE
:10008000810006FF02C03FEF06C0772321F03ED07B
:100090008BB9772788270F910FBF0F9118958F92F3
:1000A0008FB68F9280908600809087001F93132FC9
:1000B0001829A9F01127109385001093840010913E
:1000C000810016FF03C010D01F7B07C0772321F4E7
:1000D0008F938EEF8BB98F911064109381001F91D5
:1000E0008F908FBE8F9018950F93739550F0880F57
:1000F000332319F40CE0801610F0839504C000003F
:1001000002C081E38BB90F9133270895EF93FF93DA
:10011000713019F4E6E4F1E00EC0723019F4E8E44D
:10012000F1E009C0733019F4ECE4F1E004C074307C
:1001300031F4E4E5F1E08F70E80F849101C081E3D0
:10014000FF91EF9108950787CF09496B13C14DD5F2
:10015000A10B43418BE30F31C7310DE183894791F7
:0401600025193131FB
:00000001FF
