:100000001CC0000000000000000000000000000014
:1000100000000000000000000000000000000000E0
:1000200000000000000000000C941C000C941C0058
:10003000000000000C941C00189508E00EBF0FEFA4
:100040000DBF00E00093C1000C94260030E234B9EB
:1000500001D0FECF6F937F938F939F93EF93FF9386
:10006000E0ECF0E06591603019F0615408D0FACF0F
:10007000FF91EF919F918F917F916F9108958F9351
:10008000EF93FF93E9EDF0E0660FE60F08F4F395C8
:100090007491E39594912D9A7A95969518F086E04F
:1000A00037D002C088E134D02D9886E031D070304E
:1000B00009F0F1CF8CE32CD0FF91EF918F9108954F
:1000C0004D4152434F47454F524749414C45584196
:1000D0004D41414E42494C4C0002020401040503CB
:1000E0000101000404030304000200040E030504DC
:1000F000020203020103070406040B0302030001CA
:10010000010304040803060409040D0403000000AD
:100110000F921F938F9300241CE90A940000E9F7C3
:100120001A95D9F78A95C1F78F911F910F9008956D
:00000001FF
